:020000040000fa
:08000000000e040000000000e6
:020000040000fa
:1018000002000000900e040000000000900e040092
:1018100000000000900e040000000000900e040084
:1018200000000000900e040000000000900e040074
:1018300000000000900e040000000000900e040064
:1018400000000000900e040000000000900e040054
:1018500000000000900e040000000000900e040044
:1018600000000000900e040000000000900e040034
:1018700000000000900e040000000000900e040024
:1018800000000000900e040000000000900e040014
:1018900000000000900e040000000000900e040004
:1018a00000000000900e040000000000900e0400f4
:1018b00000000000900e040000000000900e0400e4
:1018c00000000000900e040000000000900e0400d4
:1018d00000000000900e040000000000900e0400c4
:1018e00000000000900e040000000000900e0400b4
:1018f00000000000900e040000000000900e0400a4
:1019000000000000900e040000000000900e040093
:1019100000000000900e040000000000900e040083
:1019200000000000900e040000000000900e040073
:1019300000000000900e040000000000900e040063
:1019400000000000900e040000000000900e040053
:1019500000000000900e040000000000900e040043
:1019600000000000900e040000000000900e040033
:1019700000000000900e040000000000900e040023
:1019800000000000900e040000000000900e040013
:1019900000000000900e040000000000900e040003
:1019a00000000000900e040000000000900e0400f3
:1019b00000000000900e040000000000900e0400e3
:1019c00000000000900e040000000000900e0400d3
:1019d00000000000900e040000000000900e0400c3
:1019e00000000000900e040000000000900e0400b3
:1019f00000000000900e040000000000900e0400a3
:101a000000000000900e040000000000900e040092
:101a100000000000900e040000000000900e040082
:101a200000000000900e040000000000900e040072
:101a300000000000900e040000000000900e040062
:101a400000000000900e040000000000900e040052
:101a500000000000900e040000000000900e040042
:101a600000000000900e040000000000900e040032
:101a700000000000900e040000000000900e040022
:101a800000000000900e040000000000900e040012
:101a900000000000900e040000000000900e040002
:101aa00000000000900e040000000000900e0400f2
:101ab00000000000900e040000000000900e0400e2
:101ac00000000000900e040000000000900e0400d2
:101ad00000000000900e040000000000900e0400c2
:101ae00000000000900e040000000000900e0400b2
:101af00000000000900e040000000000900e0400a2
:101b000000000000900e040000000000900e040091
:101b100000000000900e040000000000900e040081
:101b200000000000900e040000000000900e040071
:101b300000000000900e040000000000900e040061
:101b400000000000900e040000000000900e040051
:101b500000000000900e040000000000900e040041
:101b600000000000900e040000000000900e040031
:101b700000000000900e040000000000900e040021
:101b800000000000900e040000000000900e040011
:101b900000000000900e040000000000900e040001
:101ba00000000000900e040000000000900e0400f1
:101bb00000000000900e040000000000900e0400e1
:101bc00000000000900e040000000000900e0400d1
:101bd00000000000900e040000000000900e0400c1
:101be00000000000900e040000000000900e0400b1
:041bf00000000000f1
:020000040000fa
:101c00006f8020000e7f22000e018800000000007f
:101c10000c000700a0ed20000100200011000700cb
:101c2000000020000000e00002003200000002007e
:101c300000000000940e0200000000000040da00e6
:101c40000000fe004440a900000020000000e00069
:101c50000300320000002000a00188004440a800da
:101c60000000060091018800800078000000eb0071
:101c700015003700e280400032a0b4009101ba00a4
:101c8000e280400032a0b4009102ba00e28040003d
:101c900032a0b4000002eb00472bde00f507b200d3
:101ca000602ce10004003a000059eb008301e900d8
:101cb000fdff3e00040037006128e1000100320012
:101cc0000082eb00040007001101ba000200e000ee
:101cd000e8ff3a00000006003159ba008301e9002c
:101ce0000c0032002159ba008301e90008003200db
:101cf0000400e00003003a00e280400032a0b4009b
:101d0000f5ff370011d9ba008301e900faff3a0064
:101d10008100e800e180400032a0b400000006002d
:081d20000040da000000fe00a3
:020000040000fa
:10000800020c0000060c00000a0c00000e0c000098
:10001800120c0000160c00001a0c00001e0c000048
:10002800220c0000260c00002a0c00002e0c0000f8
:10003800320c0000360c00003a0c00003e0c0000a8
:10004800420c0000460c00004a0c00004e0c000058
:10005800520c0000560c00005a0c00005e0c000008
:10006800620c0000660c00006a0c00006e0c0000b8
:10007800720c0000760c00007a0c00007e0c000068
:10008800820c0000860c00008a0c00008e0c000018
:10009800920c0000960c00009a0c00009e0c0000c8
:1000a800a20c0000a60c0000aa0c0000ae0c000078
:1000b800b20c0000b60c0000ba0c0000be0c000028
:1000c800c20c0000c60c0000ca0c0000ce0c0000d8
:1000d800d20c0000d60c0000da0c0000de0c000088
:1000e800e20c0000e60c0000ea0c0000ee0c000038
:1000f800f20c0000f60c0000fa0c0000fe0c0000e8
:10010800020d0000060d00000a0d00000e0d000093
:10011800120d0000160d00001a0d00001e0d000043
:10012800220d0000260d00002a0d00002e0d0000f3
:10013800320d0000360d00003a0d00003e0d0000a3
:10014800420d0000460d00004a0d00004e0d000053
:10015800520d0000560d00005a0d00005e0d000003
:10016800620d0000660d00006a0d00006e0d0000b3
:10017800720d0000760d00007a0d00007e0d000063
:10018800820d0000860d00008a0d00008e0d000013
:10019800920d0000960d00009a0d00009e0d0000c3
:1001a800a20d0000a60d0000aa0d0000ae0d000073
:1001b800b20d0000b60d0000ba0d0000be0d000023
:1001c800c20d0000c60d0000ca0d0000ce0d0000d3
:1001d800d20d0000d60d0000da0d0000de0d000083
:1001e800e20d0000e60d0000ea0d0000ee0d000033
:0801f800f20d0000f60d0000fd
:020000040000fa
:10020800020c0000060c00000a0c00000e0c000096
:10021800120c0000160c00001a0c00001e0c000046
:10022800220c0000260c00002a0c00002e0c0000f6
:10023800320c0000360c00003a0c00003e0c0000a6
:10024800420c0000460c00004a0c00004e0c000056
:10025800520c0000560c00005a0c00005e0c000006
:10026800620c0000660c00006a0c00006e0c0000b6
:10027800720c0000760c00007a0c00007e0c000066
:10028800820c0000860c00008a0c00008e0c000016
:10029800920c0000960c00009a0c00009e0c0000c6
:1002a800a20c0000a60c0000aa0c0000ae0c000076
:1002b800b20c0000b60c0000ba0c0000be0c000026
:1002c800c20c0000c60c0000ca0c0000ce0c0000d6
:1002d800d20c0000d60c0000da0c0000de0c000086
:1002e800e20c0000e60c0000ea0c0000ee0c000036
:1002f800f20c0000f60c0000fa0c0000fe0c0000e6
:10030800020d0000060d00000a0d00000e0d000091
:10031800120d0000160d00001a0d00001e0d000041
:10032800220d0000260d00002a0d00002e0d0000f1
:10033800320d0000360d00003a0d00003e0d0000a1
:10034800420d0000460d00004a0d00004e0d000051
:10035800520d0000560d00005a0d00005e0d000001
:10036800620d0000660d00006a0d00006e0d0000b1
:10037800720d0000760d00007a0d00007e0d000061
:10038800820d0000860d00008a0d00008e0d000011
:10039800920d0000960d00009a0d00009e0d0000c1
:1003a800a20d0000a60d0000aa0d0000ae0d000071
:1003b800b20d0000b60d0000ba0d0000be0d000021
:1003c800c20d0000c60d0000ca0d0000ce0d0000d1
:1003d800d20d0000d60d0000da0d0000de0d000081
:1003e800e20d0000e60d0000ea0d0000ee0d000031
:0803f800f20d0000f60d0000fb
:020000040000fa
:101d28000000fa0030c0b30004e8b700100020003b
:101d3800004088003000200010408800160037005e
:101d480004c8bf000004e000160032000140800013
:101d580010408000808f500004003a00104080003e
:101d68000000e800104088000b00370001408000a8
:101d780010408000808f50000400390004c8bf0064
:101d88000040e90004e8b700030037000040800085
:101d98000080e8000040880004c8bf000004e0009c
:0c1da800e7ff3a000080fa00000006008f
:020000040000fa
:101db4000008000006000000000000000000000011
:00000001FF
