:020000040000fa
:08000000040e040000000000e2
:020000040000fa
:1018000002000000000e040000000000000e0400b2
:1018100000000000000e040000000000000e0400a4
:1018200000000000000e040000000000000e040094
:1018300000000000000e040000000000000e040084
:1018400000000000000e040000000000000e040074
:1018500000000000000e040000000000000e040064
:1018600000000000000e040000000000000e040054
:1018700000000000000e040000000000000e040044
:1018800000000000000e040000000000000e040034
:1018900000000000000e040000000000000e040024
:1018a00000000000000e040000000000000e040014
:1018b00000000000000e040000000000000e040004
:1018c00000000000000e040000000000000e0400f4
:1018d00000000000000e040000000000000e0400e4
:1018e00000000000000e040000000000000e0400d4
:1018f00000000000000e040000000000000e0400c4
:1019000000000000000e040000000000000e0400b3
:1019100000000000000e040000000000000e0400a3
:1019200000000000000e040000000000000e040093
:1019300000000000000e040000000000000e040083
:1019400000000000000e040000000000000e040073
:1019500000000000000e040000000000000e040063
:1019600000000000000e040000000000000e040053
:1019700000000000000e040000000000000e040043
:1019800000000000000e040000000000000e040033
:1019900000000000000e040000000000000e040023
:1019a00000000000000e040000000000000e040013
:1019b00000000000000e040000000000000e040003
:1019c00000000000000e040000000000000e0400f3
:1019d00000000000000e040000000000000e0400e3
:1019e00000000000000e040000000000000e0400d3
:1019f00000000000000e040000000000000e0400c3
:101a000000000000000e040000000000000e0400b2
:101a100000000000000e040000000000000e0400a2
:101a200000000000000e040000000000000e040092
:101a300000000000000e040000000000000e040082
:101a400000000000000e040000000000000e040072
:101a500000000000000e040000000000000e040062
:101a600000000000000e040000000000000e040052
:101a700000000000000e040000000000000e040042
:101a800000000000000e040000000000000e040032
:101a900000000000000e040000000000000e040022
:101aa00000000000000e040000000000000e040012
:101ab00000000000000e040000000000000e040002
:101ac00000000000000e040000000000000e0400f2
:101ad00000000000000e040000000000000e0400e2
:101ae00000000000000e040000000000000e0400d2
:101af00000000000000e040000000000000e0400c2
:101b000000000000000e040000000000000e0400b1
:101b100000000000000e040000000000000e0400a1
:101b200000000000000e040000000000000e040091
:101b300000000000000e040000000000000e040081
:101b400000000000000e040000000000000e040071
:101b500000000000000e040000000000000e040061
:101b600000000000000e040000000000000e040051
:101b700000000000000e040000000000000e040041
:101b800000000000000e040000000000000e040031
:101b900000000000000e040000000000000e040021
:101ba00000000000000e040000000000000e040011
:101bb00000000000000e040000000000000e040001
:101bc00000000000000e040000000000000e0400f1
:101bd00000000000000e040000000000000e0400e1
:101be00000000000000e040000000000000e0400d1
:041bf00000000000f1
:020000040000fa
:081c00000040da000000fe00c4
:020000040000fa
:10000800020c0000060c00000a0c00000e0c000098
:10001800120c0000160c00001a0c00001e0c000048
:10002800220c0000260c00002a0c00002e0c0000f8
:10003800320c0000360c00003a0c00003e0c0000a8
:10004800420c0000460c00004a0c00004e0c000058
:10005800520c0000560c00005a0c00005e0c000008
:10006800620c0000660c00006a0c00006e0c0000b8
:10007800720c0000760c00007a0c00007e0c000068
:10008800820c0000860c00008a0c00008e0c000018
:10009800920c0000960c00009a0c00009e0c0000c8
:1000a800a20c0000a60c0000aa0c0000ae0c000078
:1000b800b20c0000b60c0000ba0c0000be0c000028
:1000c800c20c0000c60c0000ca0c0000ce0c0000d8
:1000d800d20c0000d60c0000da0c0000de0c000088
:1000e800e20c0000e60c0000ea0c0000ee0c000038
:1000f800f20c0000f60c0000fa0c0000fe0c0000e8
:10010800020d0000060d00000a0d00000e0d000093
:10011800120d0000160d00001a0d00001e0d000043
:10012800220d0000260d00002a0d00002e0d0000f3
:10013800320d0000360d00003a0d00003e0d0000a3
:10014800420d0000460d00004a0d00004e0d000053
:10015800520d0000560d00005a0d00005e0d000003
:10016800620d0000660d00006a0d00006e0d0000b3
:10017800720d0000760d00007a0d00007e0d000063
:10018800820d0000860d00008a0d00008e0d000013
:10019800920d0000960d00009a0d00009e0d0000c3
:1001a800a20d0000a60d0000aa0d0000ae0d000073
:1001b800b20d0000b60d0000ba0d0000be0d000023
:1001c800c20d0000c60d0000ca0d0000ce0d0000d3
:1001d800d20d0000d60d0000da0d0000de0d000083
:1001e800e20d0000e60d0000ea0d0000ee0d000033
:0801f800f20d0000f60d0000fd
:020000040000fa
:10020800020c0000060c00000a0c00000e0c000096
:10021800120c0000160c00001a0c00001e0c000046
:10022800220c0000260c00002a0c00002e0c0000f6
:10023800320c0000360c00003a0c00003e0c0000a6
:10024800420c0000460c00004a0c00004e0c000056
:10025800520c0000560c00005a0c00005e0c000006
:10026800620c0000660c00006a0c00006e0c0000b6
:10027800720c0000760c00007a0c00007e0c000066
:10028800820c0000860c00008a0c00008e0c000016
:10029800920c0000960c00009a0c00009e0c0000c6
:1002a800a20c0000a60c0000aa0c0000ae0c000076
:1002b800b20c0000b60c0000ba0c0000be0c000026
:1002c800c20c0000c60c0000ca0c0000ce0c0000d6
:1002d800d20c0000d60c0000da0c0000de0c000086
:1002e800e20c0000e60c0000ea0c0000ee0c000036
:1002f800f20c0000f60c0000fa0c0000fe0c0000e6
:10030800020d0000060d00000a0d00000e0d000091
:10031800120d0000160d00001a0d00001e0d000041
:10032800220d0000260d00002a0d00002e0d0000f1
:10033800320d0000360d00003a0d00003e0d0000a1
:10034800420d0000460d00004a0d00004e0d000051
:10035800520d0000560d00005a0d00005e0d000001
:10036800620d0000660d00006a0d00006e0d0000b1
:10037800720d0000760d00007a0d00007e0d000061
:10038800820d0000860d00008a0d00008e0d000011
:10039800920d0000960d00009a0d00009e0d0000c1
:1003a800a20d0000a60d0000aa0d0000ae0d000071
:1003b800b20d0000b60d0000ba0d0000be0d000021
:1003c800c20d0000c60d0000ca0d0000ce0d0000d1
:1003d800d20d0000d60d0000da0d0000de0d000081
:1003e800e20d0000e60d0000ea0d0000ee0d000031
:0803f800f20d0000f60d0000fb
:020000040000fa
:101c0800234080000240800082502f00024088005c
:101c18000000eb000311de000200e00003003200c8
:101c28007018e10008003200faff37000000e800f1
:101c3800104088006100e10001003200f5ff370024
:101c480081017800f3ff3700280e0400000000002f
:020000040000fa
:101c5800000800000600000000000000000000006e
:00000001FF
